:0400000000EF0BF012
:1000080000C01AF001C019F002C018F003C017F0C0
:1000180004C016F005C015F0E1CF21F0E2CF22F0C0
:10002800E9CF1FF0EACF20F0F5CF1EF0F8CF1BF094
:10003800F7CF1CF0F6CF1DF067EC0AF01EC0F5FFF5
:100048001BC0F8FF1CC0F7FF1DC0F6FF1AC000F068
:1000580019C001F018C002F017C003F016C004F070
:1000680015C005F01FC0E9FF20C0EAFF21C0E1FF6D
:0600780022C0E2FF1100AE
:10007E00000E056E040E066E7DC003F0000E046EBB
:10008E000336043603900336043603907EC000F028
:10009E00000E016E0036013600900050032601500E
:1000AE00042203C001F004C002F0013601900236B2
:1000BE0001360190023601C003F002C004F0043292
:1000CE000332049E04BC048E04320332049E04BC2C
:1000DE00048E03C000F004C001F00036009001361B
:1000EE00003600900136055000260650012200C051
:1000FE0005F001C006F000C0E1FF01C0E2FFE69E80
:10010E0000017E51000A12E17DC000F0000E016E6A
:10011E00003600900136430E0024E16E000E0120E1
:10012E00E26E05C0E6FF06C0E6FF11D07DC000F00E
:10013E00000E016E003600900136470E0024E16E6F
:10014E00000E0120E26E05C0E6FF06C0E6FF05C008
:10015E00E1FF06C0E2FFE69C040E0524E16E000EF0
:08016E000620E26EE68C12008F
:0E017600800E00017D11006E00C059F01200D5
:100184007DC056F07EC057F07FC05AF080C05BF04F
:10019400800E00018111006E008000C059F0120031
:1001A4007DC056F07EC057F07FC058F080C05AF032
:1001B40081C05BF0800E00018211006E00C059F016
:0201C400120027
:1001C60020C401F01F0E01160150010AD8A4120026
:1001D60004012451000AD8A412002151060A38E16C
:1001E6002DD04250010A13E1A40E00017D6F160EB8
:1001F6007E6F000E7F6F120E7D27000E7E237F23FB
:10020600090E806F000E816F400E826FC8DF20D00E
:100216004250010A0EE10001720E7D6F160E7E6FCE
:10022600000E7F6F320E806F000E816F400E826F60
:10023600B6DF0ED000017D6B9BDF0AD0040123518F
:10024600210ACFE02351220AE3E02351230AF2E0F8
:1002560020C401F0600E0116050E006E005004E089
:100266000132019EFF0FFBD70150010AD8A41200EC
:1002760027D039D038D0400E00017D6F000E7E6F3A
:10028600010E7F6F000E806F400E816F78DF2BD0DE
:1002960000017D6B6DDF23C440F025D00001410EC7
:1002A6007D6F000E7E6F010E7F6F000E806F816B7B
:1002B60066DF19D000017D6B5BDF22C441F013D0ED
:1002C60004012151010AD5E02151090AD3E0215147
:1002D600020AD1E021510A0ADBE02151030ADEE0DD
:0802E60021510B0AE7E01200B0
:1002EE00700EE16E0F0EE26E00017851E126D8B06D
:1002FE00E22A79C0E6FF79A504D078C07DF07E6B46
:10030E00B7DE79A305D078C07DF0010E7E6FB0DE2A
:02031E001200CB
:1003200000017951000A12E078C000F0000E016E61
:10033000003600900136470E0024E96E000E0120C1
:10034000EA6EEECF04F0EECF05F011D078C000F0E9
:10035000000E016E003600900136430E0024E96E57
:10036000000E0120EA6EEECF04F0EECF05F0020E93
:100370000424E16E000E0520E26E7AC0E6FF7BC029
:10038000E6FF010E0424E16E000E0520E26E7CC043
:10039000E6FF04C0E9FF05C0EAFFEECF00F004C0AD
:1003A000E1FF05C0E2FF400E0014E66E04C0E9FF65
:1003B00005C0EAFFEECF00F004C0E1FF05C0E2FF98
:1003C000880E0010E66E7951000A1BE078C000F03C
:1003D000000E016E003600900136470E0024026EBA
:1003E000000E0120036E02C0E9FF03C0EAFF040E05
:1003F000EE18006E02C0E1FF03C0E2FF00C0E6FF9E
:100400001AD078C000F0000E016E00360090013660
:10041000430E0024026E000E0120036E02C0E9FFAD
:1004200003C0EAFF040EEE18006E02C0E1FF03C035
:10043000E2FF00C0E6FF04C000F005C001F01200BA
:100440003D5215E0010E0001786F1E0E796F4FDFEF
:10045000010E786F796B31C07AF032C07BF0400EBC
:100460007C6F5EDF00C02DF001C02EF014D00001C3
:10047000010E786F1E0E796F3ADF010E786F796B7F
:1004800031C07AF032C07BF0400E7C6F49DF00C093
:080490002DF001C02EF0120056
:080498003D5201E094DE120068
:1004A00072C002F073C003F075C000F076C001F0B6
:1004B000010E0001755F000E765B0050011009E02F
:1004C00002C0E1FF03C0E2FF74C0E6FF024A032A54
:0404D000EBD7120054
:1004D4000CD0B4DF3CD03BD0DDDF39D038D037D0BE
:1004E40036D035D0000033D032D0000E000173195D
:1004F40002E1010E7219EDE0000E731902E1020E21
:100504007219E9E0000E731902E1030E7219E4E0B6
:100514007351000A02E1730E7219E0E07351000A8C
:1005240002E1750E7219DBE07351000A02E1740EE8
:100534007219D6E073513F0A02E1FF0E7219D1E03D
:100544007351000A02E1720E7219CCE0CDD7010E8C
:04055400006E120023
:100558000B6A0A6A096A00500402F4CF09F0F3CF63
:1005680008F001500502F4CF0BF0F3CF0AF0005069
:100578000502F3500926F4500A22E86A0B220150BA
:100588000402F3500926F4500A22E86A0B2208C034
:1005980000F009C001F00AC002F00BC003F012001D
:1005A800F250026EF29E0500FF6A0150FE6E005086
:0805B800FD6E02BEF28E12007E
:1005C00004012051800AD8A471D0C00E596E64D0A5
:1005D000C20E006E160E016E000E026E00C056F0C6
:1005E00001C057F002C058F0120E5A6E000E5B6E3A
:1005F0005DD022C400F0000E016E030E046E000EEA
:10060000056EAADF330E0024E96E000E0120EA6EAB
:10061000EECF56F0EECF57F0EECF58F0020E562444
:10062000F66E000E5720F76E000E5820F86E090087
:10063000F5CF00F00900F5CF01F000C05AF001C07D
:100640005BF034D0030E225D23E222C400F0000EE2
:10065000016E030E046E000E056E7EDF240E002474
:10066000E96E000E0120EA6EEECF56F0EECF57F0A5
:10067000EECF58F056C0F6FF57C0F7FF58C0F8FF4E
:100680000900F5CF00F000C05AF0000E5B6E01D0FB
:10069000596A0CD0596A0AD02351010A99E02351B2
:0E06A000020AA7E02351030ACDE0F4D71200AE
:1006AE00598E710E0001726F0F0E736F746B010E07
:1006BE00756F000E766FEDDE5D0E726F000E736F4E
:1006CE00746B010E756F000E766FE3DE22C442F07E
:1006DE004250000A03E1100E236E0FD0200E236E3F
:1006EE00010E726F000E736F420E746F000E756FF7
:0C06FE00010E766F000E776FE6DE120032
:10070A00000E5B5C02E1080E5A5C10E25AC003F06C
:10071A005BC004F03650000A03E1010E366E05D0C4
:10072A003650010A02E1020E366E04D0080E036E3C
:10073A00000E046E47C0E1FF48C0E2FFE69247C0E0
:10074A00E1FF48C0E2FFE69047C0E9FF48C0EAFF80
:10075A00EECF00F047C0E1FF48C0E2FF04500010AE
:10076A00E66E010E4724E16E000E4820E26E03C0D9
:10077A00E6FF03505A5C006E04505B58016E00C0DD
:10078A005AF001C05BF0280E5E6E040E5F6E59B01F
:10079A002FD0035004102BE056C0F6FF57C0F7FFC6
:1007AA0058C0F8FF0900F5CF00F05EC0E1FF5FC056
:1007BA00E2FF00C0E6FF5E4A5F2A010E5624006E81
:1007CA00000E5720016E000E5820026E00C056F02F
:1007DA0001C057F002C058F0010E035C006E000E13
:1007EA000458016E00C003F001C004F0D2D724D02F
:1007FA000350041021E056C0E9FF57C0EAFF5EC06B
:10080A00E1FF5FC0E2FFEECFE6FF5E4A5F2A010E1C
:10081A005624006E000E5720016E00C056F001C02B
:10082A0057F0010E035C006E000E0458016E00C002
:0A083A0003F001C004F0DCD7120047
:1008440004012251010A0FE120C401F01F0E011618
:100854000150000A08E1598E2151030A03E1010EF7
:10086400376E01D0376A2251000AD8A489D020C437
:1008740001F01F0E01160150020AD8A481D024C42D
:1008840001F00F0E01160150000AD8B479D0598E28
:1008940024BF16D024C403F00F0E031603C000F0C7
:1008A400000E016E003600900136430E0024E96EFE
:1008B400000E0120EA6EEECF04F0EECF05F015D065
:1008C40024C403F00F0E031603C000F0000E016EE3
:1008D400003600900136470E0024E96E000E012018
:1008E400EA6EEECF04F0EECF05F02151030A07E1E2
:1008F40004C0E1FF05C0E2FF840EE66E41D024C4CB
:1009040000F00F0E0016700E026E0F0E036E0050F4
:100914000226D8B0032A02C0E9FF03C0EAFFEECFE3
:1009240000F0EECF01F0009002C0E1FF03C0E2FF4F
:1009340000C0E6FF01C0E6FF24AF11D004C0E1FF10
:1009440005C0E2FFE66A040E0418006E00C004F05D
:1009540004C0E1FF05C0E2FF400EE66E11D004C002
:10096400E1FF05C0E2FF880EE66E040E0418006E77
:1009740000C004F004C0E1FF05C0E2FFC80EE66E4B
:0209840012005F
:100986000401286B296B42D0598E28813750010A01
:10099600D8B4288350D0598E4ED0598E24BF16D045
:1009A60024C403F00F0E031603C000F0000E016E00
:1009B600003600900136430E0024E96E000E012039
:1009C600EA6EEECF04F0EECF05F015D024C403F0A6
:1009D6000F0E031603C000F0000E016E00360090E5
:1009E6000136470E0024E96E000E0120EA6EEECFB6
:1009F60004F0EECF05F004C0E9FF05C0EAFFEECF34
:100A060001F001A402D0010E286F15D020C401F018
:100A16001F0E01160150000AB7E020C401F01F0E98
:100A260001160150010AB7E020C401F01F0E01169D
:100A36000150020AB2E059AE07D0280E566E040ED7
:0A0A4600576E5980020E5A6E12001E
:100A50003A6A47C0E1FF48C0E2FFE66A040E471861
:100A6000E16E48C0E2FF000EE21AE66A4FAE13D014
:100A7000000E006E551808E10050541805E10050B2
:100A8000531802E15250000A05E052C000F053C072
:080A900001F08ADD4F9E120007
:100A9800010E3E24E96E000E3F20EA6EEECF00F014
:100AA80000C070F0000E515C03E100017051505C11
:100AB80003E250C070F00BD000017051505C006E22
:100AC800000E5158016E00C050F001C051F00001F5
:100AD800716B7051715D1CE2280EE96E040EEA6EAE
:100AE8007151E926D8B0EA2AEECF00F04DC0E1FFF7
:100AF8004EC0E2FF00C0E6FF010E4D24006E000E5E
:100B08004E20016E00C04DF001C04EF0712BE1D7B0
:100B1800000E006E5150005C02E15050000828E2BF
:100B2800010E4B24E16E000E4C20E26E080EE66EBC
:100B3800020E4B24E16E000E4C20E26E280EE66E8B
:100B4800040EE66E3EC0E9FF3FC0EAFFEECF00F0BC
:100B580000BC07D04BC0E1FF4CC0E2FFC80EE66EF8
:100B680006D04BC0E1FF4CC0E2FF880EE66E2BD0EA
:100B7800010E4B24E16E000E4C20E26E080EE66E6C
:100B8800020E4B24E16E000E4C20E26E200EE66E43
:100B9800040EE66E4BC0E1FF4CC0E2FF840EE66E29
:100BA800000E006E551808E10050541805E1005079
:100BB800531802E15250000A05E052C000F053C039
:080BC80001F0EEDC4F9E12006B
:100BD00020C401F0600E0116050E006E005004E006
:100BE0000132019EFF0FFBD70150000AD8A412006A
:100BF0003ED0598E080E236E5DD0E2DC5BD057DD0F
:100C000059D0420E566E000E576E5980010E5A6E24
:100C1000598E50D0B8DE4ED015DE4CD05D0E006E31
:100C2000000E016E24510026D8B0012A00C056F0F3
:100C300001C057F05980010E5A6E598E3BD0598E23
:100C40005D0EE16E000EE26E2451E126D8B0E22A7C
:100C500022C4E6FF2FD0020E0001726F000E736FE8
:100C6000746B756B766B776B35DC24D023D0040105
:100C70002151050ABEE02151060ABFE02151090AAF
:100C8000BEE02151080ABDE02151000AC3E0215114
:100C9000010AC2E02151030ABFE021510A0ABEE065
:100CA00021510B0ACCE02151070AD5E021510C0A51
:060CB000DDE0DCD71200BC
:100CB6006D9859BE49D04FAE28D0020E3A6E010E3D
:100CC6004724E16E000E4820E26EE66A47C0E1FF67
:100CD60048C0E2FFC80EE66E010E4B24E16E000E20
:100CE6004C20E26E080EE66E020E4B24E16E000EFC
:100CF6004C20E26E280EE66E040EE66E4BC0E1FF57
:100D06004CC0E2FFC80EE66E1ED0010E4B24E16E0B
:100D1600000E4C20E26E080EE66E020E4B24E16ECB
:100D2600000E4C20E26E200EE66E040EE66E4BC000
:100D3600E1FF4CC0E2FF8C0EE66E47C0E1FF48C003
:100D4600E2FF840EE66E7DD04FBE7BD0040120AF5D
:100D560051D05B50275D02E15A50265D04E226C45D
:100D66005AF027C45BF0CEDC010E3A6E010E4B241E
:100D7600E16E000E4C20E26E080EE66E020E4B246B
:100D8600E16E000E4C20E26E200EE66E040EE66E5C
:100D96004BC0E1FF4CC0E2FF800EE66E386A010EE2
:100DA6003E24E16E000E3F20E26E080EE66E020E55
:100DB6003E24E16E000E3F20E26E200EE66E040E2B
:100DC600E66E3EC0E1FF3FC0E2FF840EE66E010E16
:100DD600386E020E4724E16E000E4820E26E280EA1
:100DE600E66E040EE66E47C0E1FF48C0E2FFC80E9D
:100DF600E66E27D0020E3A6E010E4724E16E000E13
:100E06004820E26EE66A47C0E1FF48C0E2FFC80E2E
:100E1600E66E010E4B24E16E000E4C20E26E080ECB
:100E2600E66E020E4B24E16E000E4C20E26E280E9A
:100E3600E66E040EE66E4BC0E1FF4CC0E2FFC80E44
:040E4600E66E120042
:100E4A003A50020A02E123DE1ED0FDDD3850000AC4
:100E5A0019E1010E4B24E16E000E4C20E26E080EE1
:100E6A00E66E020E4B24E16E000E4C20E26E200E5E
:100E7A00E66E040EE66E4BC0E1FF4CC0E2FF8C0E3C
:080E8A00E66E01D0386A120087
:100E920000016951000A12E068C000F0000E016E04
:100EA200003600900136470E0024E96E000E012044
:100EB200EA6EEECF04F0EECF05F011D068C000F07C
:100EC200000E016E003600900136430E0024E96EDA
:100ED200000E0120EA6EEECF04F0EECF05F0020E16
:100EE2000424E16E000E0520E26E6AC0E6FF6BC0CC
:100EF200E6FF010E0424E16E000E0520E26E6CC0D6
:100F0200E6FF04C0E9FF05C0EAFFEECF00F004C02F
:100F1200E1FF05C0E2FF400E0014E66E04C0E9FFE7
:100F220005C0EAFFEECF00F004C0E1FF05C0E2FF1A
:100F3200880E0010E66E6951000A1BE068C000F0DE
:100F4200000E016E003600900136470E0024026E3C
:100F5200000E0120036E02C0E9FF03C0EAFF040E87
:100F6200EE18006E02C0E1FF03C0E2FF00C0E6FF20
:100F72001AD068C000F0000E016E003600900136F3
:100F8200430E0024026E000E0120036E02C0E9FF30
:100F920003C0EAFF040EEE18006E02C0E1FF03C0B8
:100FA200E2FF00C0E6FF04C000F005C001F012003D
:100FB200A40E336E160E346E000E356EE80E246EDD
:100FC200160E256E000E266EE00E276E160E286E89
:100FD200000E296ED40E2A6E160E2B6E000E2C6E8B
:020FE2001200FB
:100FE400000E0001691902E1000E681902E1016AAC
:100FF40009D068C0E9FF69C0EAFFEECF00F0016ADA
:0A10040000BE012A01C000F0120036
:0A100E00D08EA28AA08AF28E120092
:1010180068C002F069C003F06BC000F06CC001F05A
:10102800010E00016B5F000E6C5B0050011009E0BF
:1010380002C0E1FF03C0E2FF6AC0E6FF024A032ADA
:04104800EBD71200D0
:0E104C00160E6F6E9F0E6B6E7B0E696E12009D
:10105A0047C0E9FF48C0EAFFEECF00F000AE05D076
:10106A0047C0E1FF48C0E2FFE66A366A3A6A5A6A4E
:10107A005B6A596AA8DD030E0001726F000E736F76
:10108A00746B756B766B776B6AEC02F00FDE12008D
:10109A0047C0E9FF48C0EAFFEECF00F0000E00BCEF
:1010AA00010E00016F6F040E4718006E00C047F072
:1010BA002350080A0AE122C46EFF6E50000803E2B8
:1010CA00100E236E02D0040E236E3A50010A2CE150
:1010DA00020E4724E16E000E4820E26E280E006ED2
:1010EA00040E016E00C0E6FF01C0E6FF85EC03F0C6
:1010FA003650020A07E147C0E1FF48C0E2FF840E0A
:10110A00E66E11D000016F51000A07E147C0E1FF06
:10111A0048C0E2FFC80EE66E06D047C0E1FF48C0ED
:0C112A00E2FF880EE66E01D08EDC1200A1
:10113600200E235C03E36DB201D002D0006A1200D8
:101146002FC068F030C069F04ADF005218E167C06E
:1011560068F0010E696F64C06AF065C06BF066C026
:101166006CF094DE00C02FF001C030F0010E0024B8
:10117600E96E000E0120EA6EEECF00F01200006A62
:02118600120055
:10118800740E0001726F000E736F746B756B766B63
:10119800776B6AEC02F06D92699468A403D0FB0E39
:0611A8006816FBD71200DF
:1011AE00200E235C03E36DB201D002D0006A120060
:1011BE002DC068F02EC069F00EDF005217E167C037
:1011CE0068F0696B64C06AF065C06BF066C06CF065
:1011DE0059DE00C02DF001C02EF0010E0024E96E84
:1011EE00000E0120EA6EEECF00F01200006A12002F
:1011FE002350000A0AE16D6A696A21DF01DF6DB6CC
:0C120E0002D06D86FCD7010E236E12008A
:10121A00CBDE2D6A2E6A2F6A306A6A6A686A11DF23
:10122A006D8C6E6A710E0001686F0F0E696F6A6BC2
:10123A00010E6B6F000E6C6FEADE6D9C646B080E1C
:10124A00645D16E264C000F0000E016E0036009084
:10125A000136003600900136000E0024E16E040EBD
:10126A000120E26EE66AE66AE66AE66A642BE7D776
:10127A00160E706E68A603D0F70E6816FBD7596A69
:10128A004F6A506A516A6D98080E476E040E486E8E
:06129A00426A236A120003
:0412A000A19A1200FD
:1012A4006984EF0E68166D82750E0001726F000E70
:1012B400736F746B756B766B776B6AEC02F012006C
:1012C40076DE2D6A2E6A2F6A306A6A6A686ABCDE24
:1012D4006D8C6E6A710E0001726F0F0E736F746BFA
:1012E400010E756F000E766F50EC02F06D9C6E6B04
:1012F400080E6E5D16E26EC000F0000E016E003640
:1013040000900136003600900136000E0024E16E94
:10131400040E0120E26EE66AE66AE66AE66A6E2B6D
:10132400E7D7160E706E68A603D0F70E6816FBD7C3
:10133400596A4F6A506A516A6D98080E476E040ED6
:08134400486E426A236A1200A0
:10134C00FD0E5C14016E026AFF0E0216000E0218EE
:10135C0002E1000E01186CE17E0E5C14016E01C0FE
:10136C0003F00332039E03C000F0000E016E003642
:10137C0000900136003600900136000E0024026EFB
:10138C00040E0120036E02C03EF003C03FF002C009
:10139C004BF003C04CF0040E4B18006E00C04BF029
:1013AC0002C0E9FF03C0EAFFEECF00F000C001F07D
:1013BC003C0E01160132019E0132019E01500D0AB4
:1013CC0035E1020E3E24E96E000E3F20EA6EEECFB0
:1013DC0001F0EECF02F00250040A02E1280E0118CF
:1013EC0023E1020E3E24E16E000E3F20E26E200E41
:1013FC00E66E040EE66E00016E6B080E6E5D14E276
:10140C00200EE16E040EE26E6E51E126D8B0E22A97
:10141C00280EE96E040EEA6E6E51E926D8B0EA2A5F
:10142C00EECFE6FF6E2BE9D712DE01D008DD0DD032
:10143C00FD0E5C14016E026AFF0E0216000E0218FD
:0C144C0002E1040E011801E122DE120092
:1014580070A019D03EC0E9FF3FC0EAFFEECF01F00F
:101468000150800A0FE147C0E9FF48C0EAFFEECF0C
:1014780001F00150840A06E13EC0E1FF3FC0E2FFEF
:0C1488008C0EE66E7090DF0E68161200ED
:1014940031C064F032C065F0400E0001666F010E89
:0614A400676F83DE1200F9
:1014AA00010E3D6E60C031F061C032F062C03BF0A7
:1014BA0063C03CF0ADDE010E016E0150010A01E18C
:0414CA0099DE120095
:1014CE002350010A07E16DBA05D0686A6980698800
:1014DE00020E236E68A405D069A403D0FB0E681615
:1014EE004CDE6DA202D0D5DE120068A018D069A025
:1014FE0016D0E1DE040E236E200E0401026F040EE0
:10150E00036F080E016F000E0015006E00C000F490
:10151E008C0E0011006E00C000F4FE0E681668A856
:10152E0005D069A803D0B7DEEF0E681668AC11D0EF
:10153E0069AC0FD0730E0001726F000E736F746B77
:10154E00756B010E766F000E776F6AEC02F0BF0EB0
:10155E00681668AA03D069AA01D077DF68A210D0F6
:10156E0069A20ED0FF0E0001726F3F0E736F746B87
:10157E00756B010E766F000E776F6AEC02F06A6A79
:10158E00040E235C02E285DE120069A625D000015E
:10159E006D6B040E6D5D20E268A61AD06CCF5CF008
:1015AE00F70E6816780E5C14016E0150000A02E107
:1015BE00C6DE0DD0720E0001726F000E736F5C0EE0
:1015CE00746F000E756F766B776B6AEC02F001D05C
:0C15DE0003D000016D2BDDD75CDE120095
:1015EA0060C064F061C065F062C066F0010E00017F
:0615FA00676F9CDD12008A
:101600000F0EC112070EB412FF0E936E000E0001F2
:10161000606F050E616F400E626F050E636F45DFF0
:1016200039DF005201E1FCD7396A400E395C14E21F
:10163000400EE16E050EE26E3950E126D8B0E22A86
:10164000000EE96E050EEA6E3950E926D8B0EA2A96
:10165000EECFE6FF392AE9D7400E0001606F050E94
:10166000616F400E626FC1DF005201E1F5D7D8D73C
:02167000FFD7A2
:1016720005010902A1010901A100050919012903B6
:1016820015002501950375018102950175058101FA
:101692000501093009311581257F750895028106FA
:0216A200C0C0C6
:1016A40009023B0101008032090400000103010228
:0E16B400000921010001223207058203080A05
:1016C20012010002000000083412010003000102AE
:0216D200000115
:0C16D4000C034D006F00750073006500F2
:0816E0000803410020004A004C
:0416E80004030904EA
:020000040030CA
:0E000000000E1F1EFF8381FF0FC00FE00F4098
:00000001FF
